:100EB0000A128A11DD2F031383128501031383168F
:100EC0008501FC3085000A128A1108000313831281
:100ED0008501031383168501603085000A128A118B
:100EE0000800031383128501031383168501DA308A
:100EF00085000A128A110800031383128501031367
:100F000083168501F23085000A128A110800031346
:100F100083128501031383168501663085000A124A
:100F20008A110800031383128501031383168501B8
:100F3000B63085000A128A11080003138312850156
:100F4000031383168501BE3085000A128A1108003A
:100F5000031383128501031383168501E030850096
:100F60000A128A11080003138312850103138316E2
:100F70008501FE3085000A128A11080003138312CE
:100F80008501031383168501F63085000A128A1144
:100F90000800031383120130A000A00FCD2F03130C
:100FA00083120130A100A10FD32F0313831201304C
:100FB000A200A20FA21DD92F0800031383128501DE
:100FC0000313831685010313831671308F000030DD
:100FD00085000A128A115B27C9276627C92771274E
:100FE000C9277C27C9278727C9279227C9279D2773
:100FF000C927A827C927B327C927BE27C927E92F8B
:04400E00C400FF3FAC
:00000001FF
